S01700004763634170706C69636174696F6E312E737265635B
S11300000C942A000C94CE020C943C000C943C00FA
S11300100C943C000C943C000C943C000C943C006C
S11300200C943C000C943C000C943C000C943C005C
S11300300C943C000C943C000C943C000C943C004C
S11300400C943C000C943C000C943C000C943C003C
S11300500C943C0011241FBECFE5D8E0DEBFCDBF19
S113006020E0A0E6B0E001C01D92A436B207E1F79B
S11300700E941F040C945D060C94000080E690E03E
S11300800E94060481E090E09093610080936000F8
S113009060E081E40E94170488E893E10E94C200B2
S11300A060E081E40E941B04C0E0D0E017C082E05D
S11300B090E0909361008093600061E081E40E948D
S11300C0170484EF91E00E94C20061E081E40E9481
S11300D01B0484EF91E00E94C2002196C530D10533
S11300E034F383E090E0909361008093600062E0D9
S11300F081E40E94170488E893E10E94C20062E050
S113010081E40E941B04C0E0D0E017C082E090E0CC
S1130110909361008093600061E081E40E94170481
S113012084EF91E00E94C20061E081E40E941B041C
S113013084EF91E00E94C2002196C530D10534F3CA
S1130140A1CF7723E4F021E030E013C060FF08C0C2
S1130150A901489F9001499F300D589F300D1124EB
S113016075956795AC01449FC001459F900D900D16
S113017011246115710551F7822F932F08958FEF84
S11301809FEF08954F925F926F927F928F929F920A
S1130190AF92BF92CF92DF92EF92FF92CF93DF9311
S11301A0CDB7DEB728970FB6F894DEBF0FBECDBF2C
S11301B0BC01990F880B990B0E943B0520E030E0AD
S11301C04AE754E40E94910469837A838B839C8375
S11301D068E070E082E090E00E94A100BC01990F09
S11301E0880B990B0E943B056D837E838F839887D0
S11301F02DEB37E346E85AE30E94CC059B01AC01A2
S113020069817A818B819C810E9491042B013C013C
S11302100E9403054B015C01072E000C880B990B0F
S11302200E943B056B017C019B01AC01C301B2013F
S11302300E94240420E030E040E05FE30E94C70510
S113024088235CF0B4016F5F7F4F072E000C880B8E
S1130250990B0E943B056B017C012DEB37E346E8CB
S11302605AE369817A818B819C810E949104A70160
S113027096010E9491049B01AC016D817E818F8166
S113028098850E94240469837A838B839C830E94CB
S113029003052B013C01072E000C880B990B0E94CF
S11302A03B054B015C019B01AC0169817A818B8127
S11302B09C810E94240420E030E040E05FE30E943F
S11302C0C70588235CF0B2016F5F7F4F072E000CD7
S11302D0880B990B0E943B054B015C0113BEC501C1
S11302E0B4010E940A0562BF83B7816083BF83B7EC
S11302F0846083BFA12CB12C09C008B600FEFDCFD9
S113030088B7816088BF8FEFA81AB80AB50180E06A
S113031090E00E9439059B01AC01C701B6010E941F
S1130320C705181654F313BE28960FB6F894DEBF0B
S11303300FBECDBFDF91CF91FF90EF90DF90CF90B4
S1130340BF90AF909F908F907F906F905F904F90F1
S113035008954F925F926F927F928F929F92AF9285
S1130360BF92CF92DF92EF92FF92CF93DF93CDB7FC
S1130370DEB728970FB6F894DEBF0FBECDBFBC0121
S1130380990F880B990B0E943B0520E030E04AE767
S113039054E40E94910469837A838B839C8368E08C
S11303A070E082E090E00E94A100BC01990F880BEC
S11303B0990B0E943B056D837E838F8398872DEB79
S11303C037E346E85AE30E94CC059B01AC016981FE
S11303D07A818B819C810E9491042B013C010E94B3
S11303E003054B015C01072E000C880B990B0E943E
S11303F03B056B017C019B01AC01C301B2010E946E
S1130400240420E030E040E05FE30E94C705882335
S11304105CF0B4016F5F7F4F072E000C880B990BC3
S11304200E943B056B017C012DEB37E346E85AE360
S113043069817A818B819C810E949104A701960134
S11304400E9491049B01AC016D817E818F8198850E
S11304500E94240469837A838B839C830E9403050E
S11304602B013C01072E000C880B990B0E943B05C5
S11304704B015C019B01AC0169817A818B819C8178
S11304800E94240420E030E040E05FE30E94C705BE
S113049088235CF0B2016F5F7F4F072E000C880B3E
S11304A0990B0E943B054B015C0115BCC501B401CD
S11304B00E940A0564BD85B5816085BD85B58260ED
S11304C085BD85B5846085BDA12CB12C09C008B655
S11304D006FEFDCF88B7806488BF8FEFA81AB80ADC
S11304E0B50180E090E00E9439059B01AC01C70191
S11304F0B6010E94C705181654F315BC28960FB60A
S1130500F894DEBF0FBECDBFDF91CF91FF90EF9087
S1130510DF90CF90BF90AF909F908F907F906F901F
S11305205F904F900895813419F08234E1F008957A
S113053041110CC02BB381E090E002C0880F991FD9
S11305406A95E2F7809582238BBB0895413029F5A3
S11305502BB381E090E002C0880F991F6A95E2F7FF
S1130560822B8BBB089541110CC028B381E090E02D
S113057002C0880F991F6A95E2F78095822388BB91
S11305800895413051F428B381E090E002C0880F0F
S1130590991F6A95E2F7822B88BB08951F920F92E8
S11305A00FB60F9211242F933F934F935F936F9342
S11305B07F938F939F93AF93BF93CF93DF93EF93E7
S11305C0FF9360E081E40E941B0462E082E40E94E5
S11305D01B0461E081E40E941B0461E082E40E9448
S11305E01B0462E081E40E941B0460E082E40E9438
S11305F01B04E0916200F09163008081918182305C
S1130600910509F484C08330910509F49AC00197D7
S113061009F0E9C060E081E40E94170462E082E42A
S11306200E94170488E893E10E94A90160E081E434
S11306300E941B0462E082E40E941B04C0E0D0E03C
S113064019C061E081E40E94170461E082E40E9421
S1130650170484EF91E00E94A90161E081E40E9403
S11306601B0461E082E40E941B0484EF91E00E9479
S1130670A9012196C530D10524F362E081E40E94EA
S1130680170460E082E40E94170488E893E10E9462
S1130690A90162E081E40E941B0460E082E40E94FC
S11306A01B04C0E0D0E011C061E081E40E941704A3
S11306B084EF91E00E94A90161E081E40E941B049F
S11306C084EF91E00E94A9012196C530D10564F31D
S11306D060E081E40E94170486C061E081E40E9426
S11306E0170461E082E40E94170484EF91E00E9401
S11306F0A90161E081E40E941B0461E082E40E949C
S11307001B0484EF91E00E94A901219602C0C0E07D
S1130710D0E0C530D1050CF362E081E40E941704F7
S113072060E082E40E94170488E893E10E94A90132
S113073062E081E40E941B0460E082E40E941B04E6
S113074052C062E081E40E94170460E082E40E94E7
S1130750170488E893E10E94A90162E081E40E9401
S11307601B0460E082E40E941B04C0E0D0E011C0DE
S113077061E081E40E94170484EF91E00E94A901E2
S113078061E081E40E941B0484EF91E00E94A901CE
S11307902196C530D10564F360E081E40E9417041A
S11307A088E893E10E94A90160E081E40E941B04AF
S11307B0C0E0D0E011C061E081E40E94170484EF3E
S11307C091E00E94A90161E081E40E941B0484EF8E
S11307D091E00E94A9012196C530D10564F362E03D
S11307E081E40E941704FF91EF91DF91CF91BF91B3
S11307F0AF919F918F917F916F915F914F913F91B5
S11308002F910F900FBE0F901F9018959093630037
S1130810809362008FB780688FBF85B7816085BF82
S113082085B7826085BF8BB780648BBF089541E034
S11308300E949302089540E00E94930208950E944A
S11308403E0080E090E008955058BB27AA270E94FC
S11308503C040C948D050E947F0538F00E948605A7
S113086020F039F49F3F19F426F40C947C050EF41F
S1130870E095E7FB0C947605E92F0E949E0558F35A
S1130880BA17620773078407950720F079F4A6F571
S11308900C94C0050EF4E0950B2EBA2FA02D0B017D
S11308A0B90190010C01CA01A0011124FF27591BB1
S11308B099F0593F50F4503E68F11A16F040A22FB7
S11308C0232F342F4427585FF3CF46953795279528
S11308D0A795F0405395C9F77EF41F16BA0B620B27
S11308E0730B840BBAF09150A1F0FF0FBB1F661F6E
S11308F0771F881FC2F70EC0BA0F621F731F841FB1
S113090048F4879577956795B795F7959E3F08F0D6
S1130910B0CF9395880F08F09927EE0F9795879598
S113092008950E94A5040C948D050E94860558F034
S11309300E947F0540F029F45F3F29F00C9476056E
S113094051110C94C1050C947C050E949E0568F31A
S11309509923B1F3552391F3951B550BBB27AA2774
S113096062177307840738F09F5F5F4F220F331FAE
S1130970441FAA1FA9F335D00E2E3AF0E0E832D076
S113098091505040E695001CCAF72BD0FE2F29D079
S1130990660F771F881FBB1F261737074807AB074B
S11309A0B0E809F0BB0B802DBF01FF2793585F4FC0
S11309B03AF09E3F510578F00C9476050C94C105ED
S11309C05F3FE4F3983ED4F3869577956795B795A2
S11309D0F7959F5FC9F7880F911D9695879597F9AD
S11309E00895E1E0660F771F881FBB1F6217730726
S11309F08407BA0720F0621B730B840BBA0BEE1F3B
S1130A0088F7E09508950E940A056894B1110C9442
S1130A10C10508950E94A60588F09F5798F0B92F44
S1130A209927B751B0F0E1F0660F771F881F991F1F
S1130A301AF0BA95C9F714C0B13091F00E94C005FC
S1130A40B1E008950C94C005672F782F8827B85F0C
S1130A5039F0B93FCCF3869577956795B395D9F777
S1130A603EF490958095709561957F4F8F4F9F4F81
S1130A700895E89409C097FB3EF49095809570958D
S1130A8061957F4F8F4F9F4F9923A9F0F92F96E9D6
S1130A90BB279395F695879577956795B795F1114B
S1130AA0F8CFFAF4BB0F11F460FF1BC06F5F7F4FE8
S1130AB08F4F9F4F16C0882311F096E911C07723FA
S1130AC021F09EE8872F762F05C0662371F096E803
S1130AD0862F70E060E02AF09A95660F771F881FD2
S1130AE0DAF7880F9695879597F9089597F99F6790
S1130AF080E870E060E008959FEF80EC08950024A2
S1130B000A941616170618060906089500240A946E
S1130B1012161306140605060895092E0394000CF4
S1130B2011F4882352F0BB0F40F4BF2B11F460FF83
S1130B3004C06F5F7F4F8F4F9F4F089557FD9058AC
S1130B40440F551F59F05F3F71F04795880F97FB8D
S1130B50991F61F09F3F79F0879508951216130647
S1130B601406551FF2CF4695F1DF08C01616170676
S1130B701806991FF1CF86957105610508940895AB
S1130B80E894BB2766277727CB0197F908950E943D
S1130B90390608F48FEF08950E94DF050C948D0543
S1130BA00E947F0538F00E94860520F0952311F0FD
S1130BB00C9476050C947C0511240C94C1050E94B8
S1130BC09E0570F3959FC1F3950F50E0551F629FEA
S1130BD0F001729FBB27F00DB11D639FAA27F00D92
S1130BE0B11DAA1F649F6627B00DA11D661F829FB9
S1130BF02227B00DA11D621F739FB00DA11D621F9E
S1130C00839FA00D611D221F749F3327A00D611DBA
S1130C10231F849F600D211D822F762F6A2F11249C
S1130C209F5750409AF0F1F088234AF0EE0FFF1FCF
S1130C30BB1F661F771F881F91505040A9F79E3F26
S1130C40510580F00C9476050C94C1055F3FE4F3E4
S1130C50983ED4F3869577956795B795F795E7957C
S1130C609F5FC1F7FE2B880F911D9695879597F985
S1130C700895990F0008550FAA0BE0E8FEEF161629
S1130C801706E807F907C0F012161306E407F5077C
S1130C9098F0621B730B840B950B39F40A2661F0F0
S1130CA0232B242B252B21F408950A2609F4A14093
S1110CB0A6958FEF811D811D0895F894FFCF46
S9030000FC
