S02B000050726F6A656374204F6E2D64656D616E642054726166666963206C6967687420636F6E74726F6C2E24
S11300000C942A000C945C030C9447000C94470055
S11300100C9447000C9447000C9447000C94470040
S11300200C9447000C9447000C9447000C94470030
S11300300C9447000C9447000C9447000C94470020
S11300400C9447000C9447000C9447000C94470010
S11300500C94470011241FBECFE5D8E0DEBFCDBF0E
S113006010E0A0E6B0E0E0EEFDE002C005900D92E5
S1130070A236B107D9F720E0A2E6B0E001C01D9294
S1130080A436B207E1F70E940A010C94EE060C9420
S11300900000CF93DF9380E690E00E949404892BC4
S11300A009F076C060E081E40E94CC00811170C048
S11300B060E081E40E94EB0081116AC084EF91E06A
S11300C00E943001892B09F063C080E690E00E9411
S11300D0940481E090E0909361008093600060E07C
S11300E081E40E94CC0088E893E10E94300160E042
S11300F081E40E94EB00C0E0D0E017C082E090E011
S1130100909361008093600061E081E40E94CC00E0
S113011084EF91E00E94300161E081E40E94EB00F1
S113012084EF91E00E9430012196C530D10534F36B
S113013083E090E0909361008093600062E081E44A
S11301400E94CC0088E893E10E94300162E081E4DF
S11301500E94EB00C0E0D0E017C082E090E09093F2
S113016061008093600061E081E40E94CC0084EF30
S113017091E00E94300161E081E40E94EB0084EF91
S113018091E00E9430012196C530D10534F3A1CF0E
S113019081E0DF91CF9108951F93CF93DF93D82F00
S11301A0162F41E00E941A03C82F811106C041E0B6
S11301B0612F8D2F0E941A0309C041E0612F8D2FFA
S11301C00E941A03C82F813009F001C08C2FDF91DF
S11301D0CF911F9108951F93CF93DF93D82F162F9C
S11301E040E00E941A03C82F811106C040E0612F2D
S11301F08D2F0E941A0309C040E0612F8D2F0E94A9
S11302001A03C82F813009F001C08C2FDF91CF91E0
S11302101F9108950E94490080E090E0089577239B
S1130220E4F021E030E013C060FF08C0A901489F5A
S11302309001499F300D589F300D11247595679595
S1130240AC01449FC001459F900D900D1124611590
S1130250710551F7822F932F08958FEF9FEF089523
S11302604F925F926F927F928F929F92AF92BF92C2
S1130270CF92DF92EF92FF92CF93DF93CDB7DEB7A9
S113028028970FB6F894DEBF0FBECDBF5C0168E0BF
S113029070E082E090E00E940F01BC01990F880B8E
S11302A0990B0E94CC0569837A838B839C832DEB05
S11302B037E346E85AE30E9481066B017C01B501ED
S11302C0BB0C880B990B0E94CC0520E030E04AE778
S11302D054E40E9422054B015C019B01AC01C7015F
S11302E0B6010E941D0588230CF098C0A701960151
S11302F0C501B4010E9422056D837E838F83988794
S11303000E9494052B013C01072E000C880B990BCD
S11303100E94CC056B017C019B01AC016D817E8147
S11303208F8198850E94B00420E030E040E05FE3D4
S11303300E947C0688235CF0B2016F5F7F4F072E1A
S1130340000C880B990B0E94CC056B017C012DEBF2
S113035037E346E85AE3C501B4010E942205A70128
S113036096010E9422059B01AC0169817A818B81EF
S11303709C810E94B00469837A838B839C830E944E
S113038094052B013C01072E000C880B990B0E944D
S1130390CC054B015C019B01AC0169817A818B81A5
S11303A09C810E94B00420E030E040E05FE30E94C2
S11303B07C0688235CF0B2016F5F7F4F072E000C30
S11303C0880B990B0E94CC054B015C0113BEC5013F
S11303D0B4010E949B0562BF83B7816083BF83B76A
S11303E0846083BFA12CB12C09C008B600FEFDCFE8
S11303F088B7816088BF8FEFA81AB80AB50180E07A
S113040090E00E94CA059B01AC01C701B6010E949D
S11304107C06181654F313BE80E001C081E02896D0
S11304200FB6F894DEBF0FBECDBFDF91CF91FF9022
S1130430EF90DF90CF90BF90AF909F908F907F9080
S11304406F905F904F9008954F925F926F927F925A
S11304508F929F92AF92BF92CF92DF92EF92FF92D0
S1130460CF93DF93CDB7DEB728970FB6F894DEBFEE
S11304700FBECDBFBC01990F880B990B0E94CC0510
S113048020E030E04AE754E40E9422054B015C017D
S113049068E070E082E090E00E940F01BC01990FD7
S11304A0880B990B0E94CC0569837A838B839C8388
S11304B02DEB37E346E85AE30E9481066B017C0189
S11304C09B01AC01C501B4010E947C0618160CF016
S11304D09BC0A7019601C501B4010E9422056D834A
S11304E07E838F8398870E9494052B013C01072EFD
S11304F0000C880B990B0E94CC056B017C019B01BD
S1130500AC016D817E818F8198850E94B00420E0CA
S113051030E040E05FE30E947C0688235CF0B20197
S11305206F5F7F4F072E000C880B990B0E94CC0540
S11305306B017C012DEB37E346E85AE3C501B401B6
S11305400E942205A70196010E9422059B01AC018D
S113055069817A818B819C810E94B00469837A834A
S11305608B839C830E9494052B013C01072E000C75
S1130570880B990B0E94CC054B015C019B01AC01DB
S113058069817A818B819C810E94B00420E030E0F3
S113059040E05FE30E947C0688235CF0B2016F5F59
S11305A07F4F072E000C880B990B0E94CC054B0142
S11305B05C0115BCC501B4010E949B0564BD85B5F1
S11305C0816085BD85B5826085BD85B5846085BD46
S11305D0A12CB12C09C008B606FEFDCF88B78064F3
S11305E088BF8FEFA81AB80AB50180E090E00E9496
S11305F0CA059B01AC01C701B6010E947C0618160E
S113060054F315BC80E001C081E028960FB6F8943D
S1130610DEBF0FBECDBFDF91CF91FF90EF90DF9093
S1130620CF90BF90AF909F908F907F906F905F908E
S11306304F900895813419F08234F1F03BC0411198
S11306400DC02BB381E090E002C0880F991F6A951A
S1130650E2F7809582238BBB80E00895413049F511
S11306602BB381E090E002C0880F991F6A95E2F7EE
S1130670822B8BBB80E0089541110DC028B381E02B
S113068090E002C0880F991F6A95E2F78095822353
S113069088BB80E00895413061F428B381E090E0A4
S11306A002C0880F991F6A95E2F7822B88BB80E00D
S11306B00895089581E008951F920F920FB60F9246
S11306C011242F933F934F935F936F937F938F9353
S11306D09F93AF93BF93CF93DF93EF93FF9360E028
S11306E081E40E94EB0062E082E40E94EB0061E09E
S11306F081E40E94EB0061E082E40E94EB0062E08E
S113070081E40E94EB0060E082E40E94EB00E0914F
S11307106200F0916300808191818230910509F437
S113072084C08330910509F49AC0019709F0E9C0A7
S113073060E081E40E94CC0062E082E40E94CC008C
S113074088E893E10E94240260E081E40E94EB00C7
S113075062E082E40E94EB00C0E0D0E019C061E0F6
S113076081E40E94CC0061E082E40E94CC0084EF2A
S113077091E00E94240261E081E40E94EB0061E0C8
S113078082E40E94EB0084EF91E00E94240221960F
S1130790C530D10524F362E081E40E94CC0060E01E
S11307A082E40E94CC0088E893E10E94240262E083
S11307B081E40E94EB0060E082E40E94EB00C0E070
S11307C0D0E011C061E081E40E94CC0084EF91E0AC
S11307D00E94240261E081E40E94EB0084EF91E036
S11307E00E9424022196C530D10564F360E081E4BF
S11307F00E94CC0086C061E081E40E94CC0061E0EC
S113080082E40E94CC0084EF91E00E94240261E023
S113081081E40E94EB0061E082E40E94EB0084EF3B
S113082091E00E942402219602C0C0E0D0E0C530CD
S1130830D1050CF362E081E40E94CC0060E082E424
S11308400E94CC0088E893E10E94240262E081E4E3
S11308500E94EB0060E082E40E94EB0052C062E080
S113086081E40E94CC0060E082E40E94CC0088E82D
S113087093E10E94240262E081E40E94EB0060E0C4
S113088082E40E94EB00C0E0D0E011C061E081E4AA
S11308900E94CC0084EF91E00E94240261E081E494
S11308A00E94EB0084EF91E00E9424022196C5305F
S11308B0D10564F360E081E40E94CC0088E893E110
S11308C00E94240260E081E40E94EB00C0E0D0E0DA
S11308D011C061E081E40E94CC0084EF91E00E94A9
S11308E0240261E081E40E94EB0084EF91E00E9425
S11308F024022196C530D10564F362E081E40E94AC
S1130900CC00FF91EF91DF91CF91BF91AF919F9177
S11309108F917F916F915F914F913F912F910F90A4
S11309200FBE0F901F901895FC012081318121503A
S113093031092330310590F4909363008093620071
S11309408FB780688FBF85B7816085BF85B78260A8
S113095085BF8BB780648BBF80E0089581E00895E4
S11309605058BB27AA270E94C8040C9442060E9430
S1130970340638F00E943B0620F039F49F3F19F406
S113098026F40C9431060EF4E095E7FB0C942B0648
S1130990E92F0E94530658F3BA17620773078407B6
S11309A0950720F079F4A6F50C9475060EF4E095FD
S11309B00B2EBA2FA02D0B01B90190010C01CA0115
S11309C0A0011124FF27591B99F0593F50F4503EC0
S11309D068F11A16F040A22F232F342F4427585FB2
S11309E0F3CF469537952795A795F0405395C9F7CA
S11309F07EF41F16BA0B620B730B840BBAF0915082
S1130A00A1F0FF0FBB1F661F771F881FC2F70EC020
S1130A10BA0F621F731F841F48F4879577956795F3
S1130A20B795F7959E3F08F0B0CF9395880F08F0DF
S1130A309927EE0F9795879508950E94070608F465
S1130A4081E008950E9436050C9442060E943B06FC
S1130A5058F00E94340640F029F45F3F29F00C94CA
S1130A602B0651110C9476060C9431060E94530601
S1130A7068F39923B1F3552391F3951B550BBB27C9
S1130A80AA2762177307840738F09F5F5F4F220F0E
S1130A90331F441FAA1FA9F335D00E2E3AF0E0E805
S1130AA032D091505040E695001CCAF72BD0FE2F4F
S1130AB029D0660F771F881FBB1F261737074807E3
S1130AC0AB07B0E809F0BB0B802DBF01FF2793589B
S1130AD05F4F3AF09E3F510578F00C942B060C942E
S1130AE076065F3FE4F3983ED4F386957795679551
S1130AF0B795F7959F5FC9F7880F911D96958795D0
S1130B0097F90895E1E0660F771F881FBB1F6217EE
S1130B1073078407BA0720F0621B730B840BBA0BAC
S1130B20EE1F88F7E09508950E949B056894B11123
S1130B300C94760608950E945B0688F09F5798F0FF
S1130B40B92F9927B751B0F0E1F0660F771F881FCE
S1130B50991F1AF0BA95C9F714C0B13091F00E94E8
S1130B607506B1E008950C947506672F782F8827D1
S1130B70B85F39F0B93FCCF3869577956795B3950F
S1130B80D9F73EF490958095709561957F4F8F4F7E
S1130B909F4F0895E89409C097FB3EF49095809583
S1130BA0709561957F4F8F4F9F4F9923A9F0F92F2F
S1130BB096E9BB279395F695879577956795B795AD
S1130BC0F111F8CFFAF4BB0F11F460FF1BC06F5F93
S1130BD07F4F8F4F9F4F16C0882311F096E911C0A5
S1130BE0772321F09EE8872F762F05C0662371F0C6
S1130BF096E8862F70E060E02AF09A95660F771FDA
S1130C00881FDAF7880F9695879597F90895990FB5
S1130C100008550FAA0BE0E8FEEF16161706E807C2
S1130C20F907C0F012161306E407F50798F0621BE3
S1130C30730B840B950B39F40A2661F0232B242BB8
S1130C40252B21F408950A2609F4A140A6958FEFD7
S1130C50811D811D089597F99F6780E870E060E029
S1130C6008959FEF80EC089500240A941616170641
S1130C7018060906089500240A9412161306140689
S1130C8005060895092E0394000C11F4882352F0EC
S1130C90BB0F40F4BF2B11F460FF04C06F5F7F4FA4
S1130CA08F4F9F4F089557FD9058440F551F59F08B
S1130CB05F3F71F04795880F97FB991F61F09F3F45
S1130CC079F087950895121613061406551FF2CF6E
S1130CD04695F1DF08C0161617061806991FF1CFBE
S1130CE086957105610508940895E894BB276627E5
S1130CF07727CB0197F908950E94070608F48FEF30
S1130D0008950E9494060C9442060E94340638F01A
S1130D100E943B0620F0952311F00C942B060C94B2
S1130D20310611240C9476060E94530670F3959FA5
S1130D30C1F3950F50E0551F629FF001729FBB27CE
S1130D40F00DB11D639FAA27F00DB11DAA1F649F6A
S1130D506627B00DA11D661F829F2227B00DA11D1D
S1130D60621F739FB00DA11D621F839FA00D611DA3
S1130D70221F749F3327A00D611D231F849F600DC4
S1130D80211D822F762F6A2F11249F5750409AF0ED
S1130D90F1F088234AF0EE0FFF1FBB1F661F771F79
S1130DA0881F91505040A9F79E3F510580F00C9444
S1130DB02B060C9476065F3FE4F3983ED4F38695B5
S1130DC077956795B795F795E7959F5FC1F7FE2BE4
S1130DD0880F911D9695879597F90895F894FFCFFC
S1050DE001000C
S9030000FC
